:0400000026EF05F0F2
:1006000000332E4341464520434F4D204C4549542D
:100610004500312E43484F434F4C41544500322E44
:1006200043484F434F4C41544500352E50494E47A7
:1006300041444F003C202E2E2E203E00342E4348B5
:100640004100646B6A6673000000000E096E040EC0
:10065000086E08040910D8A41DD0010E99EC04F00E
:10066000D5EC04F001EC05F0800E99EC04F0120ECC
:10067000046E060E056EB9EC04F0C00E99EC04F0A1
:10068000D5EC04F0340E046E060E056EB9EC04F0E1
:10069000FFD700D0020E08180910D8A41DD0010EF3
:1006A00099EC04F0D5EC04F001EC05F0800E99EC27
:1006B00004F01E0E046E060E056EB9EC04F0C00EBA
:1006C00099EC04F0D5EC04F0340E046E060E056EC1
:1006D000B9EC04F0FFD700D0030E08180910D8A415
:1006E0001DD0010E99EC04F0D5EC04F001EC05F0FE
:1006F000800E99EC04F0010E046E060E056EB9EC46
:1007000004F0C00E99EC04F0D5EC04F0340E046E45
:10071000060E056EB9EC04F0FFD700D0040E0818E1
:100720000910D8A415D0D5EC04F001EC05F03C0E6E
:10073000046E060E056EB9EC04F0C10E99EC04F0DF
:10074000420E046E060E056EB9EC04F0FFD700D021
:10075000050E08180910D8A400EF00F0010E99EC5E
:1007600004F0D5EC04F001EC05F0800E99EC04F0F7
:100770002A0E046E060E056EB9EC04F0C00E99EC5C
:1007800004F0D5EC04F0340E046E060E056EB9ECE0
:1007900004F0FFD700EF00F0076EF00E8316F00EA6
:1007A00095169494949094928B948B908B921EECCB
:1007B00005F0300E99EC04F0050E12EC05F0300E49
:1007C00099EC04F0010E12EC05F0320E99EC04F0F5
:1007D00000D051EC04F00009D8B402D0FAD700D010
:1007E00051EC04F00009D8A4FBD7075099EC04F0B1
:1007F00000D051EC04F00009D8A4FBD7080E99EC06
:1008000004F000D051EC04F00009D8A4FBD70F0E7F
:1008100099EC04F000D051EC04F00009D8A4FBD707
:10082000010E99EC04F000D051EC04F00009D8A4BA
:10083000FBD7040E99EC04F000D051EC04F0000951
:10084000D8A4FBD7800E27EC04F000D01200066E6F
:10085000F00E9516F00E83160650036E046A038E92
:10086000040E056E043404320332052EFBD7035008
:100870000F0B83128B948B90EEEC04F08B82EEECDA
:1008800004F08B92F00E831606500F0B8312EEECE1
:1008900004F08B82EEEC04F08B920F0E951200D0D8
:1008A0001200EEEC04F022D023D08B848B90EEEC7F
:1008B00004F08B82EEEC04F08B928B941EEC05F02E
:1008C00015D016D083A60AD08B92EEEC04F08B8262
:1008D000EEEC04F08B928B94010E0AD08B92EEEC2E
:1008E00004F08B82EEEC04F08B928B94000E00D01F
:1008F0001200036EF00E9516F00E831603380F0BE0
:100900000F0B83128B808B94EEEC04F08B82EEEC59
:1009100004F08B92F00E831603500F0B8312EEEC53
:1009200004F08B82EEEC04F08B920F0E951200D047
:100930001200036EF00E9516F00E831603380F0B9F
:100940000F0B83128B948B90EEEC04F08B82EEEC09
:1009500004F08B92F00E831603500F0B8312EEEC13
:1009600004F08B82EEEC04F08B920F0E951200D007
:10097000120011D000D051EC04F00009D8A4FBD72C
:1009800004C0F6FF05C0F7FF0800F55079EC04F04D
:10099000044A052A00D004C0F6FF05C0F7FF08008E
:1009A000F5500009D8A4E7D71200C30E016ECD0E92
:1009B000E82EFED7012EFCD700F0C30E016ECD0E3F
:1009C000E82EFED7012EFCD700F0C30E016ECD0E2F
:1009D000E82EFED7012EFCD700F01200000E026EAA
:1009E000000E016E02BE08D002500AE1120E015C38
:1009F000D8B006D001D004D0014A022AF3D700D0E3
:100A00001200280ECCEC03F01EEC05F00C0E99EC55
:100A100004F01EEC05F000D051EC04F00009D8A45D
:100A2000FBD71200026E0D0E016EFC0EE82EFED7F3
:100A3000012EFCD7022EF7D700D01200620E016EF5
:100A4000660EE82EFED7012EFCD71200000EF86EBF
:0A0A5000060EF76E000125EF03F01B
:020000040020DA
:08000000FFFFFFFFFFFFFFFF00
:020000040030CA
:0E000000FF821E00FF8380FF0FC00FE00F4045
:00000001FF
